{
  "address": "0xe7f1725E7734CE288F8367e1Bb143E90bb3F0512",
  "abi": [
    {
      "inputs": [
        {
          "internalType": "address",
          "name": "s_priceFeedAddress",
          "type": "address"
        }
      ],
      "stateMutability": "nonpayable",
      "type": "constructor"
    },
    {
      "inputs": [],
      "name": "FundMe__NotOwner",
      "type": "error"
    },
    {
      "stateMutability": "payable",
      "type": "fallback"
    },
    {
      "inputs": [],
      "name": "MINIMUM_USD",
      "outputs": [
        {
          "internalType": "uint256",
          "name": "",
          "type": "uint256"
        }
      ],
      "stateMutability": "view",
      "type": "function"
    },
    {
      "inputs": [],
      "name": "cheaperWithdraw",
      "outputs": [],
      "stateMutability": "nonpayable",
      "type": "function"
    },
    {
      "inputs": [],
      "name": "fund",
      "outputs": [],
      "stateMutability": "payable",
      "type": "function"
    },
    {
      "inputs": [],
      "name": "i_owner",
      "outputs": [
        {
          "internalType": "address",
          "name": "",
          "type": "address"
        }
      ],
      "stateMutability": "view",
      "type": "function"
    },
    {
      "inputs": [
        {
          "internalType": "address",
          "name": "",
          "type": "address"
        }
      ],
      "name": "s_addressToAmountFunded",
      "outputs": [
        {
          "internalType": "uint256",
          "name": "",
          "type": "uint256"
        }
      ],
      "stateMutability": "view",
      "type": "function"
    },
    {
      "inputs": [
        {
          "internalType": "uint256",
          "name": "",
          "type": "uint256"
        }
      ],
      "name": "s_funders",
      "outputs": [
        {
          "internalType": "address",
          "name": "",
          "type": "address"
        }
      ],
      "stateMutability": "view",
      "type": "function"
    },
    {
      "inputs": [],
      "name": "s_priceFeed",
      "outputs": [
        {
          "internalType": "contract AggregatorV3Interface",
          "name": "",
          "type": "address"
        }
      ],
      "stateMutability": "view",
      "type": "function"
    },
    {
      "inputs": [],
      "name": "withdraw",
      "outputs": [],
      "stateMutability": "nonpayable",
      "type": "function"
    },
    {
      "stateMutability": "payable",
      "type": "receive"
    }
  ],
  "transactionHash": "0xcf0ee762e5f1e54a9b87e8b887857a0d5425986c30800840b5cdc196f3616f49",
  "args": [
    "0x5FbDB2315678afecb367f032d93F642f64180aa3"
  ],
  "numDeployments": 1,
  "solcInputHash": "60c6401842c2653e5411d767fb15a19a",
  "bytecode": "0x60a06040523480156200001157600080fd5b506040516200152a3803806200152a833981810160405281019062000037919062000120565b3373ffffffffffffffffffffffffffffffffffffffff1660808173ffffffffffffffffffffffffffffffffffffffff1660601b8152505080600260006101000a81548173ffffffffffffffffffffffffffffffffffffffff021916908373ffffffffffffffffffffffffffffffffffffffff1602179055505062000152565b600080fd5b600073ffffffffffffffffffffffffffffffffffffffff82169050919050565b6000620000e882620000bb565b9050919050565b620000fa81620000db565b81146200010657600080fd5b50565b6000815190506200011a81620000ef565b92915050565b600060208284031215620001395762000138620000b6565b5b6000620001498482850162000109565b91505092915050565b60805160601c6113ab6200017f60003960008181610345015281816105f201526108b701526113ab6000f3fe60806040526004361061007f5760003560e01c80636b69a5921161004e5780636b69a59214610154578063b60d42881461017f578063be2693f014610189578063dba6335f146101a05761008e565b80630ec3b027146100985780631bf6132d146100c35780633ccfd60b1461010057806354861af7146101175761008e565b3661008e5761008c6101cb565b005b6100966101cb565b005b3480156100a457600080fd5b506100ad610305565b6040516100ba9190610bc4565b60405180910390f35b3480156100cf57600080fd5b506100ea60048036038101906100e59190610c22565b61032b565b6040516100f79190610c68565b60405180910390f35b34801561010c57600080fd5b50610115610343565b005b34801561012357600080fd5b5061013e60048036038101906101399190610caf565b6105a4565b60405161014b9190610ceb565b60405180910390f35b34801561016057600080fd5b506101696105e3565b6040516101769190610c68565b60405180910390f35b6101876101cb565b005b34801561019557600080fd5b5061019e6105f0565b005b3480156101ac57600080fd5b506101b56108b5565b6040516101c29190610ceb565b60405180910390f35b6802b5e3af16b188000061020a600260009054906101000a900473ffffffffffffffffffffffffffffffffffffffff16346108d990919063ffffffff16565b101561024b576040517f08c379a000000000000000000000000000000000000000000000000000000000815260040161024290610d63565b60405180910390fd5b346000803373ffffffffffffffffffffffffffffffffffffffff1673ffffffffffffffffffffffffffffffffffffffff16815260200190815260200160002060008282546102999190610db2565b925050819055506001339080600181540180825580915050600190039060005260206000200160009091909190916101000a81548173ffffffffffffffffffffffffffffffffffffffff021916908373ffffffffffffffffffffffffffffffffffffffff160217905550565b600260009054906101000a900473ffffffffffffffffffffffffffffffffffffffff1681565b60006020528060005260406000206000915090505481565b7f000000000000000000000000000000000000000000000000000000000000000073ffffffffffffffffffffffffffffffffffffffff163373ffffffffffffffffffffffffffffffffffffffff16146103c8576040517f579610db00000000000000000000000000000000000000000000000000000000815260040160405180910390fd5b6103e96040518060600160405280602c8152602001611314602c9139610915565b60005b6001805490508110156104945760006001828154811061040f5761040e610e08565b5b9060005260206000200160009054906101000a900473ffffffffffffffffffffffffffffffffffffffff16905060008060008373ffffffffffffffffffffffffffffffffffffffff1673ffffffffffffffffffffffffffffffffffffffff1681526020019081526020016000208190555050808061048c90610e37565b9150506103ec565b50600067ffffffffffffffff8111156104b0576104af610e80565b5b6040519080825280602002602001820160405280156104de5781602001602082028036833780820191505090505b50600190805190602001906104f4929190610a94565b5060003373ffffffffffffffffffffffffffffffffffffffff164760405161051b90610ee0565b60006040518083038185875af1925050503d8060008114610558576040519150601f19603f3d011682016040523d82523d6000602084013e61055d565b606091505b50509050806105a1576040517f08c379a000000000000000000000000000000000000000000000000000000000815260040161059890610f41565b60405180910390fd5b50565b600181815481106105b457600080fd5b906000526020600020016000915054906101000a900473ffffffffffffffffffffffffffffffffffffffff1681565b6802b5e3af16b188000081565b7f000000000000000000000000000000000000000000000000000000000000000073ffffffffffffffffffffffffffffffffffffffff163373ffffffffffffffffffffffffffffffffffffffff1614610675576040517f579610db00000000000000000000000000000000000000000000000000000000815260040160405180910390fd5b61069660405180606001604052806036815260200161134060369139610915565b6000600180548060200260200160405190810160405280929190818152602001828054801561071a57602002820191906000526020600020905b8160009054906101000a900473ffffffffffffffffffffffffffffffffffffffff1673ffffffffffffffffffffffffffffffffffffffff16815260200190600101908083116106d0575b5050505050905060005b81518110156107a457600082828151811061074257610741610e08565b5b6020026020010151905060008060008373ffffffffffffffffffffffffffffffffffffffff1673ffffffffffffffffffffffffffffffffffffffff1681526020019081526020016000208190555050808061079c90610e37565b915050610724565b50600067ffffffffffffffff8111156107c0576107bf610e80565b5b6040519080825280602002602001820160405280156107ee5781602001602082028036833780820191505090505b5060019080519060200190610804929190610a94565b5060003373ffffffffffffffffffffffffffffffffffffffff164760405161082b90610ee0565b60006040518083038185875af1925050503d8060008114610868576040519150601f19603f3d011682016040523d82523d6000602084013e61086d565b606091505b50509050806108b1576040517f08c379a00000000000000000000000000000000000000000000000000000000081526004016108a890610f41565b60405180910390fd5b5050565b7f000000000000000000000000000000000000000000000000000000000000000081565b6000806108e5836109ae565b90506000670de0b6b3a764000085836108fe9190610f61565b6109089190610fea565b9050809250505092915050565b6109ab8160405160240161092991906110a3565b6040516020818303038152906040527f41304fac000000000000000000000000000000000000000000000000000000007bffffffffffffffffffffffffffffffffffffffffffffffffffffffff19166020820180517bffffffffffffffffffffffffffffffffffffffffffffffffffffffff8381831617835250505050610a4e565b50565b6000808273ffffffffffffffffffffffffffffffffffffffff1663feaf968c6040518163ffffffff1660e01b815260040160a06040518083038186803b1580156109f757600080fd5b505afa158015610a0b573d6000803e3d6000fd5b505050506040513d601f19601f82011682018060405250810190610a2f9190611152565b5050509150506402540be40081610a4691906111cd565b915050919050565b610a6581610a5d610a68610a89565b63ffffffff16565b50565b60006a636f6e736f6c652e6c6f679050600080835160208501845afa505050565b610b1e819050919050565b828054828255906000526020600020908101928215610b0d579160200282015b82811115610b0c5782518260006101000a81548173ffffffffffffffffffffffffffffffffffffffff021916908373ffffffffffffffffffffffffffffffffffffffff16021790555091602001919060010190610ab4565b5b509050610b1a9190610b28565b5090565b610b266112e4565b565b5b80821115610b41576000816000905550600101610b29565b5090565b600073ffffffffffffffffffffffffffffffffffffffff82169050919050565b6000819050919050565b6000610b8a610b85610b8084610b45565b610b65565b610b45565b9050919050565b6000610b9c82610b6f565b9050919050565b6000610bae82610b91565b9050919050565b610bbe81610ba3565b82525050565b6000602082019050610bd96000830184610bb5565b92915050565b600080fd5b6000610bef82610b45565b9050919050565b610bff81610be4565b8114610c0a57600080fd5b50565b600081359050610c1c81610bf6565b92915050565b600060208284031215610c3857610c37610bdf565b5b6000610c4684828501610c0d565b91505092915050565b6000819050919050565b610c6281610c4f565b82525050565b6000602082019050610c7d6000830184610c59565b92915050565b610c8c81610c4f565b8114610c9757600080fd5b50565b600081359050610ca981610c83565b92915050565b600060208284031215610cc557610cc4610bdf565b5b6000610cd384828501610c9a565b91505092915050565b610ce581610be4565b82525050565b6000602082019050610d006000830184610cdc565b92915050565b600082825260208201905092915050565b7f596f75206e65656420746f207370656e64206d6f726520455448210000000000600082015250565b6000610d4d601b83610d06565b9150610d5882610d17565b602082019050919050565b60006020820190508181036000830152610d7c81610d40565b9050919050565b7f4e487b7100000000000000000000000000000000000000000000000000000000600052601160045260246000fd5b6000610dbd82610c4f565b9150610dc883610c4f565b9250827fffffffffffffffffffffffffffffffffffffffffffffffffffffffffffffffff03821115610dfd57610dfc610d83565b5b828201905092915050565b7f4e487b7100000000000000000000000000000000000000000000000000000000600052603260045260246000fd5b6000610e4282610c4f565b91507fffffffffffffffffffffffffffffffffffffffffffffffffffffffffffffffff821415610e7557610e74610d83565b5b600182019050919050565b7f4e487b7100000000000000000000000000000000000000000000000000000000600052604160045260246000fd5b600081905092915050565b50565b6000610eca600083610eaf565b9150610ed582610eba565b600082019050919050565b6000610eeb82610ebd565b9150819050919050565b7f43616c6c206661696c6564000000000000000000000000000000000000000000600082015250565b6000610f2b600b83610d06565b9150610f3682610ef5565b602082019050919050565b60006020820190508181036000830152610f5a81610f1e565b9050919050565b6000610f6c82610c4f565b9150610f7783610c4f565b9250817fffffffffffffffffffffffffffffffffffffffffffffffffffffffffffffffff0483118215151615610fb057610faf610d83565b5b828202905092915050565b7f4e487b7100000000000000000000000000000000000000000000000000000000600052601260045260246000fd5b6000610ff582610c4f565b915061100083610c4f565b9250826110105761100f610fbb565b5b828204905092915050565b600081519050919050565b60005b83811015611044578082015181840152602081019050611029565b83811115611053576000848401525b50505050565b6000601f19601f8301169050919050565b60006110758261101b565b61107f8185610d06565b935061108f818560208601611026565b61109881611059565b840191505092915050565b600060208201905081810360008301526110bd818461106a565b905092915050565b600069ffffffffffffffffffff82169050919050565b6110e4816110c5565b81146110ef57600080fd5b50565b600081519050611101816110db565b92915050565b6000819050919050565b61111a81611107565b811461112557600080fd5b50565b60008151905061113781611111565b92915050565b60008151905061114c81610c83565b92915050565b600080600080600060a0868803121561116e5761116d610bdf565b5b600061117c888289016110f2565b955050602061118d88828901611128565b945050604061119e8882890161113d565b93505060606111af8882890161113d565b92505060806111c0888289016110f2565b9150509295509295909350565b60006111d882611107565b91506111e383611107565b9250827f7fffffffffffffffffffffffffffffffffffffffffffffffffffffffffffffff048211600084136000841316161561122257611221610d83565b5b817f8000000000000000000000000000000000000000000000000000000000000000058312600084126000841316161561125f5761125e610d83565b5b827f8000000000000000000000000000000000000000000000000000000000000000058212600084136000841216161561129c5761129b610d83565b5b827f7fffffffffffffffffffffffffffffffffffffffffffffffffffffffffffffff05821260008412600084121616156112d9576112d8610d83565b5b828202905092915050565b7f4e487b7100000000000000000000000000000000000000000000000000000000600052605160045260246000fdfe4c6f6767696e673a2057652061726520696e207468652077697468647261772066756e6374696f6e206e6f774c6f6767696e673a2057652061726520696e207468652063686561706572207769746864726177202d2d2d2d2d2d2d2d2d2d2d2d2d2da264697066735822122099a4333db4e95a374968112eabe7545d9f8946b7f56a3ef80e2fb0111096c1c464736f6c63430008080033",
  "devdoc": {
    "kind": "dev",
    "methods": {},
    "version": 1
  },
  "userdoc": {
    "kind": "user",
    "methods": {},
    "version": 1
  },
  "storageLayout": {
    "storage": [
      {
        "astId": 59,
        "contract": "contracts/FundMe.sol:FundMe",
        "label": "s_addressToAmountFunded",
        "offset": 0,
        "slot": "0",
        "type": "t_mapping(t_address,t_uint256)"
      },
      {
        "astId": 62,
        "contract": "contracts/FundMe.sol:FundMe",
        "label": "s_funders",
        "offset": 0,
        "slot": "1",
        "type": "t_array(t_address)dyn_storage"
      },
      {
        "astId": 74,
        "contract": "contracts/FundMe.sol:FundMe",
        "label": "s_priceFeed",
        "offset": 0,
        "slot": "2",
        "type": "t_contract(AggregatorV3Interface)45"
      }
    ],
    "types": {
      "t_address": {
        "encoding": "inplace",
        "label": "address",
        "numberOfBytes": "20"
      },
      "t_array(t_address)dyn_storage": {
        "base": "t_address",
        "encoding": "dynamic_array",
        "label": "address[]",
        "numberOfBytes": "32"
      },
      "t_contract(AggregatorV3Interface)45": {
        "encoding": "inplace",
        "label": "contract AggregatorV3Interface",
        "numberOfBytes": "20"
      },
      "t_mapping(t_address,t_uint256)": {
        "encoding": "mapping",
        "key": "t_address",
        "label": "mapping(address => uint256)",
        "numberOfBytes": "32",
        "value": "t_uint256"
      },
      "t_uint256": {
        "encoding": "inplace",
        "label": "uint256",
        "numberOfBytes": "32"
      }
    }
  }
}